{
  "contractName": "TenderAuction",
  "abi": [
    {
      "constant": true,
      "inputs": [],
      "name": "bidCount",
      "outputs": [
        {
          "internalType": "uint256",
          "name": "",
          "type": "uint256"
        }
      ],
      "payable": false,
      "stateMutability": "view",
      "type": "function"
    },
    {
      "constant": true,
      "inputs": [],
      "name": "bidderCount",
      "outputs": [
        {
          "internalType": "uint256",
          "name": "",
          "type": "uint256"
        }
      ],
      "payable": false,
      "stateMutability": "view",
      "type": "function"
    },
    {
      "constant": true,
      "inputs": [
        {
          "internalType": "address",
          "name": "",
          "type": "address"
        }
      ],
      "name": "bidders",
      "outputs": [
        {
          "internalType": "uint256",
          "name": "id",
          "type": "uint256"
        },
        {
          "internalType": "string",
          "name": "username",
          "type": "string"
        }
      ],
      "payable": false,
      "stateMutability": "view",
      "type": "function"
    },
    {
      "constant": true,
      "inputs": [
        {
          "internalType": "uint256",
          "name": "",
          "type": "uint256"
        }
      ],
      "name": "bids",
      "outputs": [
        {
          "internalType": "uint256",
          "name": "id",
          "type": "uint256"
        },
        {
          "internalType": "address",
          "name": "tenderBy",
          "type": "address"
        },
        {
          "internalType": "uint256",
          "name": "tenderId",
          "type": "uint256"
        },
        {
          "internalType": "string",
          "name": "tenderTitle",
          "type": "string"
        },
        {
          "internalType": "uint256",
          "name": "bid",
          "type": "uint256"
        },
        {
          "internalType": "address",
          "name": "userHash",
          "type": "address"
        }
      ],
      "payable": false,
      "stateMutability": "view",
      "type": "function"
    },
    {
      "constant": true,
      "inputs": [],
      "name": "tenderCount",
      "outputs": [
        {
          "internalType": "uint256",
          "name": "",
          "type": "uint256"
        }
      ],
      "payable": false,
      "stateMutability": "view",
      "type": "function"
    },
    {
      "constant": true,
      "inputs": [
        {
          "internalType": "uint256",
          "name": "",
          "type": "uint256"
        }
      ],
      "name": "tenders",
      "outputs": [
        {
          "internalType": "uint256",
          "name": "id",
          "type": "uint256"
        },
        {
          "internalType": "string",
          "name": "itemName",
          "type": "string"
        },
        {
          "internalType": "string",
          "name": "itemDescription",
          "type": "string"
        },
        {
          "internalType": "uint256",
          "name": "quantity",
          "type": "uint256"
        },
        {
          "internalType": "address",
          "name": "userHash",
          "type": "address"
        }
      ],
      "payable": false,
      "stateMutability": "view",
      "type": "function"
    },
    {
      "constant": true,
      "inputs": [],
      "name": "uploaderCount",
      "outputs": [
        {
          "internalType": "uint256",
          "name": "",
          "type": "uint256"
        }
      ],
      "payable": false,
      "stateMutability": "view",
      "type": "function"
    },
    {
      "constant": true,
      "inputs": [
        {
          "internalType": "address",
          "name": "",
          "type": "address"
        }
      ],
      "name": "uploaders",
      "outputs": [
        {
          "internalType": "uint256",
          "name": "id",
          "type": "uint256"
        },
        {
          "internalType": "string",
          "name": "username",
          "type": "string"
        }
      ],
      "payable": false,
      "stateMutability": "view",
      "type": "function"
    },
    {
      "constant": true,
      "inputs": [
        {
          "internalType": "uint256",
          "name": "",
          "type": "uint256"
        }
      ],
      "name": "whoIsBidder",
      "outputs": [
        {
          "internalType": "address",
          "name": "",
          "type": "address"
        }
      ],
      "payable": false,
      "stateMutability": "view",
      "type": "function"
    },
    {
      "constant": true,
      "inputs": [
        {
          "internalType": "uint256",
          "name": "",
          "type": "uint256"
        }
      ],
      "name": "whoIsUploader",
      "outputs": [
        {
          "internalType": "address",
          "name": "",
          "type": "address"
        }
      ],
      "payable": false,
      "stateMutability": "view",
      "type": "function"
    },
    {
      "constant": false,
      "inputs": [
        {
          "internalType": "string",
          "name": "_username",
          "type": "string"
        }
      ],
      "name": "createUploader",
      "outputs": [],
      "payable": false,
      "stateMutability": "nonpayable",
      "type": "function"
    },
    {
      "constant": false,
      "inputs": [
        {
          "internalType": "string",
          "name": "_username",
          "type": "string"
        }
      ],
      "name": "createBidder",
      "outputs": [],
      "payable": false,
      "stateMutability": "nonpayable",
      "type": "function"
    },
    {
      "constant": false,
      "inputs": [
        {
          "internalType": "string",
          "name": "_itemName",
          "type": "string"
        },
        {
          "internalType": "string",
          "name": "_itemDescription",
          "type": "string"
        },
        {
          "internalType": "uint256",
          "name": "_quantity",
          "type": "uint256"
        }
      ],
      "name": "createTender",
      "outputs": [],
      "payable": false,
      "stateMutability": "nonpayable",
      "type": "function"
    },
    {
      "constant": false,
      "inputs": [
        {
          "internalType": "uint256",
          "name": "_tenderId",
          "type": "uint256"
        },
        {
          "internalType": "uint256",
          "name": "_bid",
          "type": "uint256"
        }
      ],
      "name": "createBid",
      "outputs": [],
      "payable": false,
      "stateMutability": "nonpayable",
      "type": "function"
    }
  ],
  "bytecode": "0x60806040526000805560006001556000600255600060035534801561002357600080fd5b5061159f806100336000396000f3fe608060405234801561001057600080fd5b50600436106100ea5760003560e01c8063907dbc1d1161008c578063b7751c7111610066578063b7751c711461027b578063ce6b980114610297578063d45fada2146102b3578063fcc8f793146102d1576100ea565b8063907dbc1d146102115780639fa958631461022d578063b40a56271461025d576100ea565b806346b1cb5d116100c857806346b1cb5d146101765780635dc1c9ab146101a657806363968e19146101c257806370d29c11146101f3576100ea565b80631f058776146100ef5780634423c5f11461010d578063465e1def14610142575b600080fd5b6100f7610302565b6040516101049190611316565b60405180910390f35b610127600480360361012291908101906111df565b610308565b60405161013996959493929190611331565b60405180910390f35b61015c600480360361015791908101906111df565b61041c565b60405161016d9594939291906113c9565b60405180910390f35b610190600480360361018b91908101906111df565b6105a2565b60405161019d91906112db565b60405180910390f35b6101c060048036036101bb919081019061111f565b6105d5565b005b6101dc60048036036101d791908101906110f6565b610854565b6040516101ea929190611399565b60405180910390f35b6101fb610910565b6040516102089190611316565b60405180910390f35b61022b60048036036102269190810190611160565b610916565b005b610247600480360361024291908101906111df565b610a17565b60405161025491906112db565b60405180910390f35b610265610a4a565b6040516102729190611316565b60405180910390f35b61029560048036036102909190810190611208565b610a50565b005b6102b160048036036102ac919081019061111f565b610c92565b005b6102bb610f11565b6040516102c89190611316565b60405180910390f35b6102eb60048036036102e691908101906110f6565b610f17565b6040516102f9929190611399565b60405180910390f35b60005481565b60056020528060005260406000206000915090508060000154908060010160009054906101000a900473ffffffffffffffffffffffffffffffffffffffff1690806002015490806003018054600181600116156101000203166002900480601f0160208091040260200160405190810160405280929190818152602001828054600181600116156101000203166002900480156103e65780601f106103bb576101008083540402835291602001916103e6565b820191906000526020600020905b8154815290600101906020018083116103c957829003601f168201915b5050505050908060040154908060050160009054906101000a900473ffffffffffffffffffffffffffffffffffffffff16905086565b6004602052806000526040600020600091509050806000015490806001018054600181600116156101000203166002900480601f0160208091040260200160405190810160405280929190818152602001828054600181600116156101000203166002900480156104ce5780601f106104a3576101008083540402835291602001916104ce565b820191906000526020600020905b8154815290600101906020018083116104b157829003601f168201915b505050505090806002018054600181600116156101000203166002900480601f01602080910402602001604051908101604052809291908181526020018280546001816001161561010002031660029004801561056c5780601f106105415761010080835404028352916020019161056c565b820191906000526020600020905b81548152906001019060200180831161054f57829003601f168201915b5050505050908060030154908060040160009054906101000a900473ffffffffffffffffffffffffffffffffffffffff16905085565b60076020528060005260406000206000915054906101000a900473ffffffffffffffffffffffffffffffffffffffff1681565b336000600190505b600254811161069f578173ffffffffffffffffffffffffffffffffffffffff166006600083815260200190815260200160002060009054906101000a900473ffffffffffffffffffffffffffffffffffffffff1673ffffffffffffffffffffffffffffffffffffffff161415610692576002600114610691576040517f08c379a0000000000000000000000000000000000000000000000000000000008152600401610688906112f6565b60405180910390fd5b5b80806001019150506105dd565b506000600190505b6003548111610769578173ffffffffffffffffffffffffffffffffffffffff166007600083815260200190815260200160002060009054906101000a900473ffffffffffffffffffffffffffffffffffffffff1673ffffffffffffffffffffffffffffffffffffffff16141561075c57600260011461075b576040517f08c379a0000000000000000000000000000000000000000000000000000000008152600401610752906112f6565b60405180910390fd5b5b80806001019150506106a7565b506002600081548092919060010191905055503360066000600254815260200190815260200160002060006101000a81548173ffffffffffffffffffffffffffffffffffffffff021916908373ffffffffffffffffffffffffffffffffffffffff1602179055506040518060400160405280600254815260200183815250600860003373ffffffffffffffffffffffffffffffffffffffff1673ffffffffffffffffffffffffffffffffffffffff16815260200190815260200160002060008201518160000155602082015181600101908051906020019061084c929190610fd3565b509050505050565b6008602052806000526040600020600091509050806000015490806001018054600181600116156101000203166002900480601f0160208091040260200160405190810160405280929190818152602001828054600181600116156101000203166002900480156109065780601f106108db57610100808354040283529160200191610906565b820191906000526020600020905b8154815290600101906020018083116108e957829003601f168201915b5050505050905082565b60035481565b60008081548092919060010191905055506040518060a0016040528060005481526020018481526020018381526020018281526020013373ffffffffffffffffffffffffffffffffffffffff1681525060046000805481526020019081526020016000206000820151816000015560208201518160010190805190602001906109a0929190610fd3565b5060408201518160020190805190602001906109bd929190610fd3565b506060820151816003015560808201518160040160006101000a81548173ffffffffffffffffffffffffffffffffffffffff021916908373ffffffffffffffffffffffffffffffffffffffff160217905550905050505050565b60066020528060005260406000206000915054906101000a900473ffffffffffffffffffffffffffffffffffffffff1681565b60015481565b6001600081548092919060010191905055506060600460008481526020019081526020016000206001018054600181600116156101000203166002900480601f016020809104026020016040519081016040528092919081815260200182805460018160011615610100020316600290048015610b0e5780601f10610ae357610100808354040283529160200191610b0e565b820191906000526020600020905b815481529060010190602001808311610af157829003601f168201915b5050505050905060006004600085815260200190815260200160002060040160009054906101000a900473ffffffffffffffffffffffffffffffffffffffff1690506040518060c0016040528060015481526020018273ffffffffffffffffffffffffffffffffffffffff1681526020018581526020018381526020018481526020013373ffffffffffffffffffffffffffffffffffffffff168152506005600060015481526020019081526020016000206000820151816000015560208201518160010160006101000a81548173ffffffffffffffffffffffffffffffffffffffff021916908373ffffffffffffffffffffffffffffffffffffffff160217905550604082015181600201556060820151816003019080519060200190610c37929190610fd3565b506080820151816004015560a08201518160050160006101000a81548173ffffffffffffffffffffffffffffffffffffffff021916908373ffffffffffffffffffffffffffffffffffffffff16021790555090505050505050565b336000600190505b6002548111610d5c578173ffffffffffffffffffffffffffffffffffffffff166006600083815260200190815260200160002060009054906101000a900473ffffffffffffffffffffffffffffffffffffffff1673ffffffffffffffffffffffffffffffffffffffff161415610d4f576002600114610d4e576040517f08c379a0000000000000000000000000000000000000000000000000000000008152600401610d45906112f6565b60405180910390fd5b5b8080600101915050610c9a565b506000600190505b6003548111610e26578173ffffffffffffffffffffffffffffffffffffffff166007600083815260200190815260200160002060009054906101000a900473ffffffffffffffffffffffffffffffffffffffff1673ffffffffffffffffffffffffffffffffffffffff161415610e19576002600114610e18576040517f08c379a0000000000000000000000000000000000000000000000000000000008152600401610e0f906112f6565b60405180910390fd5b5b8080600101915050610d64565b506003600081548092919060010191905055503360076000600354815260200190815260200160002060006101000a81548173ffffffffffffffffffffffffffffffffffffffff021916908373ffffffffffffffffffffffffffffffffffffffff1602179055506040518060400160405280600354815260200183815250600960003373ffffffffffffffffffffffffffffffffffffffff1673ffffffffffffffffffffffffffffffffffffffff168152602001908152602001600020600082015181600001556020820151816001019080519060200190610f09929190610fd3565b509050505050565b60025481565b6009602052806000526040600020600091509050806000015490806001018054600181600116156101000203166002900480601f016020809104026020016040519081016040528092919081815260200182805460018160011615610100020316600290048015610fc95780601f10610f9e57610100808354040283529160200191610fc9565b820191906000526020600020905b815481529060010190602001808311610fac57829003601f168201915b5050505050905082565b828054600181600116156101000203166002900490600052602060002090601f016020900481019282601f1061101457805160ff1916838001178555611042565b82800160010185558215611042579182015b82811115611041578251825591602001919060010190611026565b5b50905061104f9190611053565b5090565b61107591905b80821115611071576000816000905550600101611059565b5090565b90565b6000813590506110878161152e565b92915050565b600082601f83011261109e57600080fd5b81356110b16110ac82611457565b61142a565b915080825260208301602083018583830111156110cd57600080fd5b6110d88382846114db565b50505092915050565b6000813590506110f081611545565b92915050565b60006020828403121561110857600080fd5b600061111684828501611078565b91505092915050565b60006020828403121561113157600080fd5b600082013567ffffffffffffffff81111561114b57600080fd5b6111578482850161108d565b91505092915050565b60008060006060848603121561117557600080fd5b600084013567ffffffffffffffff81111561118f57600080fd5b61119b8682870161108d565b935050602084013567ffffffffffffffff8111156111b857600080fd5b6111c48682870161108d565b92505060406111d5868287016110e1565b9150509250925092565b6000602082840312156111f157600080fd5b60006111ff848285016110e1565b91505092915050565b6000806040838503121561121b57600080fd5b6000611229858286016110e1565b925050602061123a858286016110e1565b9150509250929050565b61124d8161149f565b82525050565b600061125e82611483565b611268818561148e565b93506112788185602086016114ea565b6112818161151d565b840191505092915050565b600061129960178361148e565b91507f4164647265737320616c72656164792070726573656e740000000000000000006000830152602082019050919050565b6112d5816114d1565b82525050565b60006020820190506112f06000830184611244565b92915050565b6000602082019050818103600083015261130f8161128c565b9050919050565b600060208201905061132b60008301846112cc565b92915050565b600060c08201905061134660008301896112cc565b6113536020830188611244565b61136060408301876112cc565b81810360608301526113728186611253565b905061138160808301856112cc565b61138e60a0830184611244565b979650505050505050565b60006040820190506113ae60008301856112cc565b81810360208301526113c08184611253565b90509392505050565b600060a0820190506113de60008301886112cc565b81810360208301526113f08187611253565b905081810360408301526114048186611253565b905061141360608301856112cc565b6114206080830184611244565b9695505050505050565b6000604051905081810181811067ffffffffffffffff8211171561144d57600080fd5b8060405250919050565b600067ffffffffffffffff82111561146e57600080fd5b601f19601f8301169050602081019050919050565b600081519050919050565b600082825260208201905092915050565b60006114aa826114b1565b9050919050565b600073ffffffffffffffffffffffffffffffffffffffff82169050919050565b6000819050919050565b82818337600083830152505050565b60005b838110156115085780820151818401526020810190506114ed565b83811115611517576000848401525b50505050565b6000601f19601f8301169050919050565b6115378161149f565b811461154257600080fd5b50565b61154e816114d1565b811461155957600080fd5b5056fea365627a7a72315820cd311d043526fa51abe1b6997d62a511358ed45635464724c365cea8b49a6c6f6c6578706572696d656e74616cf564736f6c63430005100040",
  "source": "pragma solidity >=0.4.21 <0.6.0;\npragma experimental ABIEncoderV2;\n\ncontract TenderAuction {\n    uint public tenderCount = 0;\n    uint public bidCount = 0;\n    uint public uploaderCount = 0;\n    uint public bidderCount = 0;\n\n    struct Uploader {\n        uint id;\n        string username;\n    }\n\n    struct Bidder {\n        uint id;\n        string username;\n    }\n\n    struct Bid {\n        uint id;\n        address tenderBy;\n        uint tenderId;\n        string tenderTitle;\n        uint bid;\n        address userHash;\n    }\n\n    struct Tender {\n        uint id;\n        string itemName;\n        string itemDescription;\n        uint quantity;\n        address userHash;\n    }\n\n    mapping (uint => Tender) public tenders;\n    mapping (uint => Bid) public bids;\n    mapping (uint => address) public whoIsUploader;\n    mapping (uint => address) public whoIsBidder;\n    mapping (address => Uploader) public uploaders;\n    mapping (address => Bidder) public bidders;\n\n    // modifier isUploader(address _userHash) {\n    //     require(uploaders[_userHash]);\n    //     _;\n    // }\n\n    // modifier isBidder(address _userHash) {\n    //     require(bidders[_userHash]);\n    //     _;\n    // }\n\n    modifier alreadyPresent(address _address) {\n        for(uint i = 1; i <= uploaderCount; i++) {\n            if(whoIsUploader[i] == _address) {\n                require(1 == 2, \"Address already present\");\n            }\n        }\n\n        for(uint i = 1; i <= bidderCount; i++) {\n            if(whoIsBidder[i] == _address) {\n                require(1 == 2, \"Address already present\");\n            }\n        }\n        _;\n    }\n\n    function createUploader(string memory _username) public alreadyPresent(msg.sender) {\n        uploaderCount++;\n        whoIsUploader[uploaderCount] = msg.sender;\n        uploaders[msg.sender] = Uploader(uploaderCount, _username);\n    }\n\n    function createBidder(string memory _username) public alreadyPresent(msg.sender) {\n        bidderCount++;\n        whoIsBidder[bidderCount] = msg.sender;\n        bidders[msg.sender] = Bidder(bidderCount, _username);\n    }\n\n    function createTender(string memory _itemName, string memory _itemDescription, uint _quantity) public {\n        tenderCount++;\n        tenders[tenderCount] = Tender(tenderCount, _itemName, _itemDescription, _quantity, msg.sender);\n    }\n\n    function createBid(uint _tenderId, uint _bid) public {\n        bidCount++;\n        string memory tenderName = tenders[_tenderId].itemName;\n        address tenderBy = tenders[_tenderId].userHash;\n        bids[bidCount] = Bid(bidCount, tenderBy, _tenderId, tenderName, _bid, msg.sender);\n    }\n}",
  "sourcePath": "/Users/shwet/Desktop/ethereum-AuctionBidding-master/contracts/Tender.sol",
  "compiler": {
    "name": "solc",
    "version": "0.5.16+commit.9c3226ce.Emscripten.clang"
  },
  "schemaVersion": "3.4.16",
  "updatedAt": "2024-07-28T09:40:15.774Z",
  "networkType": "ethereum",
  "devdoc": {
    "methods": {}
  },
  "userdoc": {
    "methods": {}
  }
}