{
  "contractName": "TenderAuction",
  "abi": [
    {
      "constant": true,
      "inputs": [],
      "name": "bidCount",
      "outputs": [
        {
          "internalType": "uint256",
          "name": "",
          "type": "uint256"
        }
      ],
      "payable": false,
      "stateMutability": "view",
      "type": "function"
    },
    {
      "constant": true,
      "inputs": [],
      "name": "bidderCount",
      "outputs": [
        {
          "internalType": "uint256",
          "name": "",
          "type": "uint256"
        }
      ],
      "payable": false,
      "stateMutability": "view",
      "type": "function"
    },
    {
      "constant": true,
      "inputs": [
        {
          "internalType": "address",
          "name": "",
          "type": "address"
        }
      ],
      "name": "bidders",
      "outputs": [
        {
          "internalType": "uint256",
          "name": "id",
          "type": "uint256"
        },
        {
          "internalType": "string",
          "name": "username",
          "type": "string"
        },
        {
          "internalType": "string",
          "name": "usertype",
          "type": "string"
        }
      ],
      "payable": false,
      "stateMutability": "view",
      "type": "function"
    },
    {
      "constant": true,
      "inputs": [
        {
          "internalType": "uint256",
          "name": "",
          "type": "uint256"
        }
      ],
      "name": "bids",
      "outputs": [
        {
          "internalType": "uint256",
          "name": "id",
          "type": "uint256"
        },
        {
          "internalType": "address",
          "name": "tenderBy",
          "type": "address"
        },
        {
          "internalType": "uint256",
          "name": "tenderId",
          "type": "uint256"
        },
        {
          "internalType": "string",
          "name": "tenderTitle",
          "type": "string"
        },
        {
          "internalType": "string",
          "name": "tenderType",
          "type": "string"
        },
        {
          "internalType": "string",
          "name": "status",
          "type": "string"
        },
        {
          "internalType": "uint256",
          "name": "tenderBudget",
          "type": "uint256"
        },
        {
          "internalType": "uint256",
          "name": "bid",
          "type": "uint256"
        },
        {
          "internalType": "address",
          "name": "userHash",
          "type": "address"
        }
      ],
      "payable": false,
      "stateMutability": "view",
      "type": "function"
    },
    {
      "constant": true,
      "inputs": [],
      "name": "tenderCount",
      "outputs": [
        {
          "internalType": "uint256",
          "name": "",
          "type": "uint256"
        }
      ],
      "payable": false,
      "stateMutability": "view",
      "type": "function"
    },
    {
      "constant": true,
      "inputs": [
        {
          "internalType": "uint256",
          "name": "",
          "type": "uint256"
        }
      ],
      "name": "tenders",
      "outputs": [
        {
          "internalType": "uint256",
          "name": "id",
          "type": "uint256"
        },
        {
          "internalType": "string",
          "name": "itemName",
          "type": "string"
        },
        {
          "internalType": "string",
          "name": "itemDescription",
          "type": "string"
        },
        {
          "internalType": "string",
          "name": "quantity",
          "type": "string"
        },
        {
          "internalType": "uint256",
          "name": "budget",
          "type": "uint256"
        },
        {
          "internalType": "string",
          "name": "status",
          "type": "string"
        },
        {
          "internalType": "string",
          "name": "tenderType",
          "type": "string"
        },
        {
          "internalType": "string",
          "name": "transportMode",
          "type": "string"
        },
        {
          "internalType": "string",
          "name": "coalQuality",
          "type": "string"
        },
        {
          "internalType": "address",
          "name": "userHash",
          "type": "address"
        }
      ],
      "payable": false,
      "stateMutability": "view",
      "type": "function"
    },
    {
      "constant": true,
      "inputs": [],
      "name": "uploaderCount",
      "outputs": [
        {
          "internalType": "uint256",
          "name": "",
          "type": "uint256"
        }
      ],
      "payable": false,
      "stateMutability": "view",
      "type": "function"
    },
    {
      "constant": true,
      "inputs": [
        {
          "internalType": "address",
          "name": "",
          "type": "address"
        }
      ],
      "name": "uploaders",
      "outputs": [
        {
          "internalType": "uint256",
          "name": "id",
          "type": "uint256"
        },
        {
          "internalType": "string",
          "name": "username",
          "type": "string"
        },
        {
          "internalType": "string",
          "name": "usertype",
          "type": "string"
        }
      ],
      "payable": false,
      "stateMutability": "view",
      "type": "function"
    },
    {
      "constant": true,
      "inputs": [
        {
          "internalType": "uint256",
          "name": "",
          "type": "uint256"
        }
      ],
      "name": "whoIsBidder",
      "outputs": [
        {
          "internalType": "address",
          "name": "",
          "type": "address"
        }
      ],
      "payable": false,
      "stateMutability": "view",
      "type": "function"
    },
    {
      "constant": true,
      "inputs": [
        {
          "internalType": "uint256",
          "name": "",
          "type": "uint256"
        }
      ],
      "name": "whoIsUploader",
      "outputs": [
        {
          "internalType": "address",
          "name": "",
          "type": "address"
        }
      ],
      "payable": false,
      "stateMutability": "view",
      "type": "function"
    },
    {
      "constant": false,
      "inputs": [
        {
          "internalType": "string",
          "name": "_username",
          "type": "string"
        },
        {
          "internalType": "string",
          "name": "_usertype",
          "type": "string"
        }
      ],
      "name": "createActor",
      "outputs": [],
      "payable": false,
      "stateMutability": "nonpayable",
      "type": "function"
    },
    {
      "constant": false,
      "inputs": [
        {
          "internalType": "string",
          "name": "_itemName",
          "type": "string"
        },
        {
          "internalType": "string",
          "name": "_itemDescription",
          "type": "string"
        },
        {
          "internalType": "string",
          "name": "_quantity",
          "type": "string"
        },
        {
          "internalType": "uint256",
          "name": "_budget",
          "type": "uint256"
        },
        {
          "internalType": "string",
          "name": "_status",
          "type": "string"
        },
        {
          "internalType": "string",
          "name": "_tenderType",
          "type": "string"
        },
        {
          "internalType": "string",
          "name": "_transportMode",
          "type": "string"
        },
        {
          "internalType": "string",
          "name": "_coalQuality",
          "type": "string"
        }
      ],
      "name": "createTender",
      "outputs": [],
      "payable": false,
      "stateMutability": "nonpayable",
      "type": "function"
    },
    {
      "constant": false,
      "inputs": [
        {
          "internalType": "uint256",
          "name": "_tenderId",
          "type": "uint256"
        },
        {
          "internalType": "string",
          "name": "bidStatus",
          "type": "string"
        },
        {
          "internalType": "uint256",
          "name": "_bid",
          "type": "uint256"
        }
      ],
      "name": "createBid",
      "outputs": [],
      "payable": false,
      "stateMutability": "nonpayable",
      "type": "function"
    }
  ],
  "bytecode": "0x60806040526000805560006001556000600255600060035534801561002357600080fd5b50611d94806100336000396000f3fe608060405234801561001057600080fd5b50600436106100cf5760003560e01c806353c78a941161008c5780639fa95863116100665780639fa9586314610237578063b40a562714610267578063d45fada214610285578063fcc8f793146102a3576100cf565b806353c78a94146101cb57806363968e19146101e757806370d29c1114610219576100cf565b80631980ea44146100d45780631f058776146100f057806333209e651461010e5780634423c5f11461012a578063465e1def1461016257806346b1cb5d1461019b575b600080fd5b6100ee60048036036100e9919081019061176e565b6102d5565b005b6100f861048d565b6040516101059190611a50565b60405180910390f35b610128600480360361012391908101906118f1565b610493565b005b610144600480360361013f91908101906118c8565b6107ec565b60405161015999989796959493929190611a6b565b60405180910390f35b61017c600480360361017791908101906118c8565b610a42565b6040516101929a99989796959493929190611b52565b60405180910390f35b6101b560048036036101b091908101906118c8565b610ede565b6040516101c29190611a15565b60405180910390f35b6101e560048036036101e09190810190611702565b610f11565b005b61020160048036036101fc91908101906116d9565b6112bd565b60405161021093929190611b0d565b60405180910390f35b610221611417565b60405161022e9190611a50565b60405180910390f35b610251600480360361024c91908101906118c8565b61141d565b60405161025e9190611a15565b60405180910390f35b61026f611450565b60405161027c9190611a50565b60405180910390f35b61028d611456565b60405161029a9190611a50565b60405180910390f35b6102bd60048036036102b891908101906116d9565b61145c565b6040516102cc93929190611b0d565b60405180910390f35b600080815480929190600101919050555060405180610140016040528060005481526020018981526020018881526020018781526020018681526020018581526020018481526020018381526020018281526020013373ffffffffffffffffffffffffffffffffffffffff16815250600460008054815260200190815260200160002060008201518160000155602082015181600101908051906020019061037e9291906115b6565b50604082015181600201908051906020019061039b9291906115b6565b5060608201518160030190805190602001906103b89291906115b6565b506080820151816004015560a08201518160050190805190602001906103df9291906115b6565b5060c08201518160060190805190602001906103fc9291906115b6565b5060e08201518160070190805190602001906104199291906115b6565b506101008201518160080190805190602001906104379291906115b6565b506101208201518160090160006101000a81548173ffffffffffffffffffffffffffffffffffffffff021916908373ffffffffffffffffffffffffffffffffffffffff1602179055509050505050505050505050565b60005481565b60016000815480929190600101919050555060006004600085815260200190815260200160002060090160009054906101000a900473ffffffffffffffffffffffffffffffffffffffff16905060405180610120016040528060015481526020018273ffffffffffffffffffffffffffffffffffffffff168152602001858152602001600460008781526020019081526020016000206001018054600181600116156101000203166002900480601f0160208091040260200160405190810160405280929190818152602001828054600181600116156101000203166002900480156105c05780601f10610595576101008083540402835291602001916105c0565b820191906000526020600020905b8154815290600101906020018083116105a357829003601f168201915b50505050508152602001600460008781526020019081526020016000206006018054600181600116156101000203166002900480601f0160208091040260200160405190810160405280929190818152602001828054600181600116156101000203166002900480156106745780601f1061064957610100808354040283529160200191610674565b820191906000526020600020905b81548152906001019060200180831161065757829003601f168201915b50505050508152602001848152602001600460008781526020019081526020016000206004015481526020018381526020013373ffffffffffffffffffffffffffffffffffffffff168152506005600060015481526020019081526020016000206000820151816000015560208201518160010160006101000a81548173ffffffffffffffffffffffffffffffffffffffff021916908373ffffffffffffffffffffffffffffffffffffffff16021790555060408201518160020155606082015181600301908051906020019061074c9291906115b6565b5060808201518160040190805190602001906107699291906115b6565b5060a08201518160050190805190602001906107869291906115b6565b5060c0820151816006015560e082015181600701556101008201518160080160006101000a81548173ffffffffffffffffffffffffffffffffffffffff021916908373ffffffffffffffffffffffffffffffffffffffff16021790555090505050505050565b60056020528060005260406000206000915090508060000154908060010160009054906101000a900473ffffffffffffffffffffffffffffffffffffffff1690806002015490806003018054600181600116156101000203166002900480601f0160208091040260200160405190810160405280929190818152602001828054600181600116156101000203166002900480156108ca5780601f1061089f576101008083540402835291602001916108ca565b820191906000526020600020905b8154815290600101906020018083116108ad57829003601f168201915b505050505090806004018054600181600116156101000203166002900480601f0160208091040260200160405190810160405280929190818152602001828054600181600116156101000203166002900480156109685780601f1061093d57610100808354040283529160200191610968565b820191906000526020600020905b81548152906001019060200180831161094b57829003601f168201915b505050505090806005018054600181600116156101000203166002900480601f016020809104026020016040519081016040528092919081815260200182805460018160011615610100020316600290048015610a065780601f106109db57610100808354040283529160200191610a06565b820191906000526020600020905b8154815290600101906020018083116109e957829003601f168201915b5050505050908060060154908060070154908060080160009054906101000a900473ffffffffffffffffffffffffffffffffffffffff16905089565b6004602052806000526040600020600091509050806000015490806001018054600181600116156101000203166002900480601f016020809104026020016040519081016040528092919081815260200182805460018160011615610100020316600290048015610af45780601f10610ac957610100808354040283529160200191610af4565b820191906000526020600020905b815481529060010190602001808311610ad757829003601f168201915b505050505090806002018054600181600116156101000203166002900480601f016020809104026020016040519081016040528092919081815260200182805460018160011615610100020316600290048015610b925780601f10610b6757610100808354040283529160200191610b92565b820191906000526020600020905b815481529060010190602001808311610b7557829003601f168201915b505050505090806003018054600181600116156101000203166002900480601f016020809104026020016040519081016040528092919081815260200182805460018160011615610100020316600290048015610c305780601f10610c0557610100808354040283529160200191610c30565b820191906000526020600020905b815481529060010190602001808311610c1357829003601f168201915b505050505090806004015490806005018054600181600116156101000203166002900480601f016020809104026020016040519081016040528092919081815260200182805460018160011615610100020316600290048015610cd45780601f10610ca957610100808354040283529160200191610cd4565b820191906000526020600020905b815481529060010190602001808311610cb757829003601f168201915b505050505090806006018054600181600116156101000203166002900480601f016020809104026020016040519081016040528092919081815260200182805460018160011615610100020316600290048015610d725780601f10610d4757610100808354040283529160200191610d72565b820191906000526020600020905b815481529060010190602001808311610d5557829003601f168201915b505050505090806007018054600181600116156101000203166002900480601f016020809104026020016040519081016040528092919081815260200182805460018160011615610100020316600290048015610e105780601f10610de557610100808354040283529160200191610e10565b820191906000526020600020905b815481529060010190602001808311610df357829003601f168201915b505050505090806008018054600181600116156101000203166002900480601f016020809104026020016040519081016040528092919081815260200182805460018160011615610100020316600290048015610eae5780601f10610e8357610100808354040283529160200191610eae565b820191906000526020600020905b815481529060010190602001808311610e9157829003601f168201915b5050505050908060090160009054906101000a900473ffffffffffffffffffffffffffffffffffffffff1690508a565b60076020528060005260406000206000915054906101000a900473ffffffffffffffffffffffffffffffffffffffff1681565b336000600190505b6002548111610fdb578173ffffffffffffffffffffffffffffffffffffffff166006600083815260200190815260200160002060009054906101000a900473ffffffffffffffffffffffffffffffffffffffff1673ffffffffffffffffffffffffffffffffffffffff161415610fce576002600114610fcd576040517f08c379a0000000000000000000000000000000000000000000000000000000008152600401610fc490611a30565b60405180910390fd5b5b8080600101915050610f19565b506000600190505b60035481116110a5578173ffffffffffffffffffffffffffffffffffffffff166007600083815260200190815260200160002060009054906101000a900473ffffffffffffffffffffffffffffffffffffffff1673ffffffffffffffffffffffffffffffffffffffff161415611098576002600114611097576040517f08c379a000000000000000000000000000000000000000000000000000000000815260040161108e90611a30565b60405180910390fd5b5b8080600101915050610fe3565b506002600081548092919060010191905055503360066000600254815260200190815260200160002060006101000a81548173ffffffffffffffffffffffffffffffffffffffff021916908373ffffffffffffffffffffffffffffffffffffffff1602179055506040518060600160405280600254815260200184815260200183815250600860003373ffffffffffffffffffffffffffffffffffffffff1673ffffffffffffffffffffffffffffffffffffffff16815260200190815260200160002060008201518160000155602082015181600101908051906020019061118e9291906115b6565b5060408201518160020190805190602001906111ab9291906115b6565b509050506003600081548092919060010191905055503360076000600354815260200190815260200160002060006101000a81548173ffffffffffffffffffffffffffffffffffffffff021916908373ffffffffffffffffffffffffffffffffffffffff1602179055506040518060600160405280600354815260200184815260200183815250600960003373ffffffffffffffffffffffffffffffffffffffff1673ffffffffffffffffffffffffffffffffffffffff1681526020019081526020016000206000820151816000015560208201518160010190805190602001906112979291906115b6565b5060408201518160020190805190602001906112b49291906115b6565b50905050505050565b6008602052806000526040600020600091509050806000015490806001018054600181600116156101000203166002900480601f01602080910402602001604051908101604052809291908181526020018280546001816001161561010002031660029004801561136f5780601f106113445761010080835404028352916020019161136f565b820191906000526020600020905b81548152906001019060200180831161135257829003601f168201915b505050505090806002018054600181600116156101000203166002900480601f01602080910402602001604051908101604052809291908181526020018280546001816001161561010002031660029004801561140d5780601f106113e25761010080835404028352916020019161140d565b820191906000526020600020905b8154815290600101906020018083116113f057829003601f168201915b5050505050905083565b60035481565b60066020528060005260406000206000915054906101000a900473ffffffffffffffffffffffffffffffffffffffff1681565b60015481565b60025481565b6009602052806000526040600020600091509050806000015490806001018054600181600116156101000203166002900480601f01602080910402602001604051908101604052809291908181526020018280546001816001161561010002031660029004801561150e5780601f106114e35761010080835404028352916020019161150e565b820191906000526020600020905b8154815290600101906020018083116114f157829003601f168201915b505050505090806002018054600181600116156101000203166002900480601f0160208091040260200160405190810160405280929190818152602001828054600181600116156101000203166002900480156115ac5780601f10611581576101008083540402835291602001916115ac565b820191906000526020600020905b81548152906001019060200180831161158f57829003601f168201915b5050505050905083565b828054600181600116156101000203166002900490600052602060002090601f016020900481019282601f106115f757805160ff1916838001178555611625565b82800160010185558215611625579182015b82811115611624578251825591602001919060010190611609565b5b5090506116329190611636565b5090565b61165891905b8082111561165457600081600090555060010161163c565b5090565b90565b60008135905061166a81611d23565b92915050565b600082601f83011261168157600080fd5b813561169461168f82611c4c565b611c1f565b915080825260208301602083018583830111156116b057600080fd5b6116bb838284611cd0565b50505092915050565b6000813590506116d381611d3a565b92915050565b6000602082840312156116eb57600080fd5b60006116f98482850161165b565b91505092915050565b6000806040838503121561171557600080fd5b600083013567ffffffffffffffff81111561172f57600080fd5b61173b85828601611670565b925050602083013567ffffffffffffffff81111561175857600080fd5b61176485828601611670565b9150509250929050565b600080600080600080600080610100898b03121561178b57600080fd5b600089013567ffffffffffffffff8111156117a557600080fd5b6117b18b828c01611670565b985050602089013567ffffffffffffffff8111156117ce57600080fd5b6117da8b828c01611670565b975050604089013567ffffffffffffffff8111156117f757600080fd5b6118038b828c01611670565b96505060606118148b828c016116c4565b955050608089013567ffffffffffffffff81111561183157600080fd5b61183d8b828c01611670565b94505060a089013567ffffffffffffffff81111561185a57600080fd5b6118668b828c01611670565b93505060c089013567ffffffffffffffff81111561188357600080fd5b61188f8b828c01611670565b92505060e089013567ffffffffffffffff8111156118ac57600080fd5b6118b88b828c01611670565b9150509295985092959890939650565b6000602082840312156118da57600080fd5b60006118e8848285016116c4565b91505092915050565b60008060006060848603121561190657600080fd5b6000611914868287016116c4565b935050602084013567ffffffffffffffff81111561193157600080fd5b61193d86828701611670565b925050604061194e868287016116c4565b9150509250925092565b61196181611c94565b82525050565b600061197282611c78565b61197c8185611c83565b935061198c818560208601611cdf565b61199581611d12565b840191505092915050565b60006119ad602a83611c83565b91507f4164647265737320616c7265616479206173736f63696174656420776974682060008301527f616e206163636f756e74000000000000000000000000000000000000000000006020830152604082019050919050565b611a0f81611cc6565b82525050565b6000602082019050611a2a6000830184611958565b92915050565b60006020820190508181036000830152611a49816119a0565b9050919050565b6000602082019050611a656000830184611a06565b92915050565b600061012082019050611a81600083018c611a06565b611a8e602083018b611958565b611a9b604083018a611a06565b8181036060830152611aad8189611967565b90508181036080830152611ac18188611967565b905081810360a0830152611ad58187611967565b9050611ae460c0830186611a06565b611af160e0830185611a06565b611aff610100830184611958565b9a9950505050505050505050565b6000606082019050611b226000830186611a06565b8181036020830152611b348185611967565b90508181036040830152611b488184611967565b9050949350505050565b600061014082019050611b68600083018d611a06565b8181036020830152611b7a818c611967565b90508181036040830152611b8e818b611967565b90508181036060830152611ba2818a611967565b9050611bb16080830189611a06565b81810360a0830152611bc38188611967565b905081810360c0830152611bd78187611967565b905081810360e0830152611beb8186611967565b9050818103610100830152611c008185611967565b9050611c10610120830184611958565b9b9a5050505050505050505050565b6000604051905081810181811067ffffffffffffffff82111715611c4257600080fd5b8060405250919050565b600067ffffffffffffffff821115611c6357600080fd5b601f19601f8301169050602081019050919050565b600081519050919050565b600082825260208201905092915050565b6000611c9f82611ca6565b9050919050565b600073ffffffffffffffffffffffffffffffffffffffff82169050919050565b6000819050919050565b82818337600083830152505050565b60005b83811015611cfd578082015181840152602081019050611ce2565b83811115611d0c576000848401525b50505050565b6000601f19601f8301169050919050565b611d2c81611c94565b8114611d3757600080fd5b50565b611d4381611cc6565b8114611d4e57600080fd5b5056fea365627a7a72315820856d4c4bfb68bae93344bf6266e3d0b87b19c93e9d9da4c2c6af978ddb3ad8066c6578706572696d656e74616cf564736f6c63430005100040",
  "source": "pragma solidity >=0.4.21 <0.6.0;\npragma experimental ABIEncoderV2;\n\ncontract TenderAuction {\n    uint public tenderCount = 0;\n    uint public bidCount = 0;\n    uint public uploaderCount = 0;\n    uint public bidderCount = 0;\n\n    struct Uploader {\n        uint id;\n        string username;\n        string usertype;\n    }\n\n    struct Bidder {\n        uint id;\n        string username;\n        string usertype;\n    }\n\n    struct Bid {\n        uint id;\n        address tenderBy;\n        uint tenderId;\n        string tenderTitle;\n        string tenderType;\n        string status;\n        uint tenderBudget;\n        uint bid;\n        address userHash;\n    }\n\n    struct Tender {\n        uint id;\n        string itemName;\n        string itemDescription;\n        string quantity;\n        uint budget;\n        string status;\n        string tenderType;\n        string transportMode;\n        string coalQuality;\n        address userHash;\n    }\n\n    mapping (uint => Tender) public tenders;\n    mapping (uint => Bid) public bids;\n    mapping (uint => address) public whoIsUploader;\n    mapping (uint => address) public whoIsBidder;\n    mapping (address => Uploader) public uploaders;\n    mapping (address => Bidder) public bidders;\n\n    // modifier isUploader(address _userHash) {\n    //     require(uploaders[_userHash]);\n    //     _;\n    // }\n\n    // modifier isBidder(address _userHash) {\n    //     require(bidders[_userHash]);\n    //     _;\n    // }\n\n    modifier alreadyPresent(address _address) {\n        for(uint i = 1; i <= uploaderCount; i++) {\n            if(whoIsUploader[i] == _address) {\n                require(1 == 2, \"Address already associated with an account\");\n            }\n        }\n\n        for(uint i = 1; i <= bidderCount; i++) {\n            if(whoIsBidder[i] == _address) {\n                require(1 == 2, \"Address already associated with an account\");\n            }\n        }\n        _;\n    }\n\n\n     function createActor(string memory _username, string memory _usertype) public alreadyPresent(msg.sender) { \n        uploaderCount++;\n        whoIsUploader[uploaderCount] = msg.sender;\n        uploaders[msg.sender] = Uploader(uploaderCount, _username, _usertype);\n        bidderCount++;\n        whoIsBidder[bidderCount] = msg.sender;\n        bidders[msg.sender] = Bidder(bidderCount, _username, _usertype);\n    }\n\n    function createTender(string memory _itemName, string memory _itemDescription, string memory _quantity, uint _budget, string memory _status, string memory _tenderType, string memory _transportMode, string memory _coalQuality) public {\n        tenderCount++;\n        tenders[tenderCount] = Tender(tenderCount, _itemName, _itemDescription, _quantity, _budget, _status, _tenderType, _transportMode,  _coalQuality, msg.sender);\n    }\n\n    function createBid(uint _tenderId, string memory bidStatus, uint _bid) public {\n        bidCount++;\n        address tenderBy = tenders[_tenderId].userHash;\n        bids[bidCount] = Bid(bidCount, tenderBy, _tenderId, tenders[_tenderId].itemName, tenders[_tenderId].tenderType, bidStatus, tenders[_tenderId].budget, _bid, msg.sender);\n    }\n}",
  "sourcePath": "/Users/shwet/Desktop/ethereum-AuctionBidding-master/contracts/Tender.sol",
  "compiler": {
    "name": "solc",
    "version": "0.5.16+commit.9c3226ce.Emscripten.clang"
  },
  "schemaVersion": "3.4.16",
  "updatedAt": "2024-08-04T14:45:15.207Z",
  "networkType": "ethereum",
  "devdoc": {
    "methods": {}
  },
  "userdoc": {
    "methods": {}
  }
}