{
  "contractName": "TenderAuction",
  "abi": [
    {
      "constant": true,
      "inputs": [],
      "name": "bidCount",
      "outputs": [
        {
          "internalType": "uint256",
          "name": "",
          "type": "uint256"
        }
      ],
      "payable": false,
      "stateMutability": "view",
      "type": "function"
    },
    {
      "constant": true,
      "inputs": [],
      "name": "bidderCount",
      "outputs": [
        {
          "internalType": "uint256",
          "name": "",
          "type": "uint256"
        }
      ],
      "payable": false,
      "stateMutability": "view",
      "type": "function"
    },
    {
      "constant": true,
      "inputs": [
        {
          "internalType": "address",
          "name": "",
          "type": "address"
        }
      ],
      "name": "bidders",
      "outputs": [
        {
          "internalType": "uint256",
          "name": "id",
          "type": "uint256"
        },
        {
          "internalType": "string",
          "name": "username",
          "type": "string"
        },
        {
          "internalType": "string",
          "name": "usertype",
          "type": "string"
        }
      ],
      "payable": false,
      "stateMutability": "view",
      "type": "function"
    },
    {
      "constant": true,
      "inputs": [
        {
          "internalType": "uint256",
          "name": "",
          "type": "uint256"
        }
      ],
      "name": "bids",
      "outputs": [
        {
          "internalType": "uint256",
          "name": "id",
          "type": "uint256"
        },
        {
          "internalType": "address",
          "name": "tenderBy",
          "type": "address"
        },
        {
          "internalType": "uint256",
          "name": "tenderId",
          "type": "uint256"
        },
        {
          "internalType": "string",
          "name": "tenderTitle",
          "type": "string"
        },
        {
          "internalType": "string",
          "name": "tenderType",
          "type": "string"
        },
        {
          "internalType": "string",
          "name": "status",
          "type": "string"
        },
        {
          "internalType": "uint256",
          "name": "tenderBudget",
          "type": "uint256"
        },
        {
          "internalType": "uint256",
          "name": "bid",
          "type": "uint256"
        },
        {
          "internalType": "address",
          "name": "userHash",
          "type": "address"
        }
      ],
      "payable": false,
      "stateMutability": "view",
      "type": "function"
    },
    {
      "constant": true,
      "inputs": [],
      "name": "tenderCount",
      "outputs": [
        {
          "internalType": "uint256",
          "name": "",
          "type": "uint256"
        }
      ],
      "payable": false,
      "stateMutability": "view",
      "type": "function"
    },
    {
      "constant": true,
      "inputs": [
        {
          "internalType": "uint256",
          "name": "",
          "type": "uint256"
        }
      ],
      "name": "tenders",
      "outputs": [
        {
          "internalType": "uint256",
          "name": "id",
          "type": "uint256"
        },
        {
          "internalType": "string",
          "name": "itemName",
          "type": "string"
        },
        {
          "internalType": "string",
          "name": "itemDescription",
          "type": "string"
        },
        {
          "internalType": "string",
          "name": "quantity",
          "type": "string"
        },
        {
          "internalType": "uint256",
          "name": "budget",
          "type": "uint256"
        },
        {
          "internalType": "string",
          "name": "status",
          "type": "string"
        },
        {
          "internalType": "string",
          "name": "tenderType",
          "type": "string"
        },
        {
          "internalType": "string",
          "name": "transportMode",
          "type": "string"
        },
        {
          "internalType": "string",
          "name": "coalQuality",
          "type": "string"
        },
        {
          "internalType": "address",
          "name": "userHash",
          "type": "address"
        }
      ],
      "payable": false,
      "stateMutability": "view",
      "type": "function"
    },
    {
      "constant": true,
      "inputs": [],
      "name": "uploaderCount",
      "outputs": [
        {
          "internalType": "uint256",
          "name": "",
          "type": "uint256"
        }
      ],
      "payable": false,
      "stateMutability": "view",
      "type": "function"
    },
    {
      "constant": true,
      "inputs": [
        {
          "internalType": "address",
          "name": "",
          "type": "address"
        }
      ],
      "name": "uploaders",
      "outputs": [
        {
          "internalType": "uint256",
          "name": "id",
          "type": "uint256"
        },
        {
          "internalType": "string",
          "name": "username",
          "type": "string"
        },
        {
          "internalType": "string",
          "name": "usertype",
          "type": "string"
        }
      ],
      "payable": false,
      "stateMutability": "view",
      "type": "function"
    },
    {
      "constant": true,
      "inputs": [
        {
          "internalType": "uint256",
          "name": "",
          "type": "uint256"
        }
      ],
      "name": "whoIsBidder",
      "outputs": [
        {
          "internalType": "address",
          "name": "",
          "type": "address"
        }
      ],
      "payable": false,
      "stateMutability": "view",
      "type": "function"
    },
    {
      "constant": true,
      "inputs": [
        {
          "internalType": "uint256",
          "name": "",
          "type": "uint256"
        }
      ],
      "name": "whoIsUploader",
      "outputs": [
        {
          "internalType": "address",
          "name": "",
          "type": "address"
        }
      ],
      "payable": false,
      "stateMutability": "view",
      "type": "function"
    },
    {
      "constant": false,
      "inputs": [
        {
          "internalType": "string",
          "name": "_username",
          "type": "string"
        },
        {
          "internalType": "string",
          "name": "_usertype",
          "type": "string"
        }
      ],
      "name": "createActor",
      "outputs": [],
      "payable": false,
      "stateMutability": "nonpayable",
      "type": "function"
    },
    {
      "constant": false,
      "inputs": [
        {
          "internalType": "string",
          "name": "_itemName",
          "type": "string"
        },
        {
          "internalType": "string",
          "name": "_itemDescription",
          "type": "string"
        },
        {
          "internalType": "string",
          "name": "_quantity",
          "type": "string"
        },
        {
          "internalType": "uint256",
          "name": "_budget",
          "type": "uint256"
        },
        {
          "internalType": "string",
          "name": "_status",
          "type": "string"
        },
        {
          "internalType": "string",
          "name": "_tenderType",
          "type": "string"
        },
        {
          "internalType": "string",
          "name": "_transportMode",
          "type": "string"
        },
        {
          "internalType": "string",
          "name": "_coalQuality",
          "type": "string"
        }
      ],
      "name": "createTender",
      "outputs": [],
      "payable": false,
      "stateMutability": "nonpayable",
      "type": "function"
    },
    {
      "constant": false,
      "inputs": [
        {
          "internalType": "uint256",
          "name": "_tenderId",
          "type": "uint256"
        },
        {
          "internalType": "string",
          "name": "bidStatus",
          "type": "string"
        },
        {
          "internalType": "uint256",
          "name": "_bid",
          "type": "uint256"
        }
      ],
      "name": "createBid",
      "outputs": [],
      "payable": false,
      "stateMutability": "nonpayable",
      "type": "function"
    },
    {
      "constant": false,
      "inputs": [
        {
          "internalType": "uint256",
          "name": "_tenderId",
          "type": "uint256"
        },
        {
          "internalType": "string",
          "name": "_newstatus",
          "type": "string"
        }
      ],
      "name": "updateTender",
      "outputs": [],
      "payable": false,
      "stateMutability": "nonpayable",
      "type": "function"
    },
    {
      "constant": false,
      "inputs": [
        {
          "internalType": "uint256",
          "name": "_id",
          "type": "uint256"
        },
        {
          "internalType": "uint256",
          "name": "_tenderId",
          "type": "uint256"
        },
        {
          "internalType": "string",
          "name": "_newstatus",
          "type": "string"
        }
      ],
      "name": "updateTenderBid",
      "outputs": [],
      "payable": false,
      "stateMutability": "nonpayable",
      "type": "function"
    }
  ],
  "bytecode": "0x60806040526000805560006001556000600255600060035534801561002357600080fd5b50612529806100336000396000f3fe608060405234801561001057600080fd5b50600436106100f55760003560e01c806363968e1911610097578063b40a562711610066578063b40a5627146102a9578063b4b9a0a5146102c7578063d45fada2146102e3578063fcc8f79314610301576100f5565b806363968e191461020d57806370d29c111461023f57806380efe12b1461025d5780639fa9586314610279576100f5565b80634423c5f1116100d35780634423c5f114610150578063465e1def1461018857806346b1cb5d146101c157806353c78a94146101f1576100f5565b80631980ea44146100fa5780631f0587761461011657806333209e6514610134575b600080fd5b610114600480360361010f9190810190611e48565b610333565b005b61011e6104eb565b60405161012b91906121e5565b60405180910390f35b61014e6004803603610149919081019061201f565b6104f1565b005b61016a60048036036101659190810190611fa2565b61084a565b60405161017f99989796959493929190612200565b60405180910390f35b6101a2600480360361019d9190810190611fa2565b610aa0565b6040516101b89a999897969594939291906122e7565b60405180910390f35b6101db60048036036101d69190810190611fa2565b610f3c565b6040516101e891906121aa565b60405180910390f35b61020b60048036036102069190810190611ddc565b610f6f565b005b61022760048036036102229190810190611db3565b61131b565b604051610236939291906122a2565b60405180910390f35b610247611475565b60405161025491906121e5565b60405180910390f35b61027760048036036102729190810190611fcb565b61147b565b005b610293600480360361028e9190810190611fa2565b61165a565b6040516102a091906121aa565b60405180910390f35b6102b161168d565b6040516102be91906121e5565b60405180910390f35b6102e160048036036102dc9190810190612086565b611693565b005b6102eb611a29565b6040516102f891906121e5565b60405180910390f35b61031b60048036036103169190810190611db3565b611a2f565b60405161032a939291906122a2565b60405180910390f35b600080815480929190600101919050555060405180610140016040528060005481526020018981526020018881526020018781526020018681526020018581526020018481526020018381526020018281526020013373ffffffffffffffffffffffffffffffffffffffff1681525060046000805481526020019081526020016000206000820151816000015560208201518160010190805190602001906103dc929190611b89565b5060408201518160020190805190602001906103f9929190611b89565b506060820151816003019080519060200190610416929190611b89565b506080820151816004015560a082015181600501908051906020019061043d929190611b89565b5060c082015181600601908051906020019061045a929190611b89565b5060e0820151816007019080519060200190610477929190611b89565b50610100820151816008019080519060200190610495929190611b89565b506101208201518160090160006101000a81548173ffffffffffffffffffffffffffffffffffffffff021916908373ffffffffffffffffffffffffffffffffffffffff1602179055509050505050505050505050565b60005481565b60016000815480929190600101919050555060006004600085815260200190815260200160002060090160009054906101000a900473ffffffffffffffffffffffffffffffffffffffff16905060405180610120016040528060015481526020018273ffffffffffffffffffffffffffffffffffffffff168152602001858152602001600460008781526020019081526020016000206001018054600181600116156101000203166002900480601f01602080910402602001604051908101604052809291908181526020018280546001816001161561010002031660029004801561061e5780601f106105f35761010080835404028352916020019161061e565b820191906000526020600020905b81548152906001019060200180831161060157829003601f168201915b50505050508152602001600460008781526020019081526020016000206006018054600181600116156101000203166002900480601f0160208091040260200160405190810160405280929190818152602001828054600181600116156101000203166002900480156106d25780601f106106a7576101008083540402835291602001916106d2565b820191906000526020600020905b8154815290600101906020018083116106b557829003601f168201915b50505050508152602001848152602001600460008781526020019081526020016000206004015481526020018381526020013373ffffffffffffffffffffffffffffffffffffffff168152506005600060015481526020019081526020016000206000820151816000015560208201518160010160006101000a81548173ffffffffffffffffffffffffffffffffffffffff021916908373ffffffffffffffffffffffffffffffffffffffff1602179055506040820151816002015560608201518160030190805190602001906107aa929190611b89565b5060808201518160040190805190602001906107c7929190611b89565b5060a08201518160050190805190602001906107e4929190611b89565b5060c0820151816006015560e082015181600701556101008201518160080160006101000a81548173ffffffffffffffffffffffffffffffffffffffff021916908373ffffffffffffffffffffffffffffffffffffffff16021790555090505050505050565b60056020528060005260406000206000915090508060000154908060010160009054906101000a900473ffffffffffffffffffffffffffffffffffffffff1690806002015490806003018054600181600116156101000203166002900480601f0160208091040260200160405190810160405280929190818152602001828054600181600116156101000203166002900480156109285780601f106108fd57610100808354040283529160200191610928565b820191906000526020600020905b81548152906001019060200180831161090b57829003601f168201915b505050505090806004018054600181600116156101000203166002900480601f0160208091040260200160405190810160405280929190818152602001828054600181600116156101000203166002900480156109c65780601f1061099b576101008083540402835291602001916109c6565b820191906000526020600020905b8154815290600101906020018083116109a957829003601f168201915b505050505090806005018054600181600116156101000203166002900480601f016020809104026020016040519081016040528092919081815260200182805460018160011615610100020316600290048015610a645780601f10610a3957610100808354040283529160200191610a64565b820191906000526020600020905b815481529060010190602001808311610a4757829003601f168201915b5050505050908060060154908060070154908060080160009054906101000a900473ffffffffffffffffffffffffffffffffffffffff16905089565b6004602052806000526040600020600091509050806000015490806001018054600181600116156101000203166002900480601f016020809104026020016040519081016040528092919081815260200182805460018160011615610100020316600290048015610b525780601f10610b2757610100808354040283529160200191610b52565b820191906000526020600020905b815481529060010190602001808311610b3557829003601f168201915b505050505090806002018054600181600116156101000203166002900480601f016020809104026020016040519081016040528092919081815260200182805460018160011615610100020316600290048015610bf05780601f10610bc557610100808354040283529160200191610bf0565b820191906000526020600020905b815481529060010190602001808311610bd357829003601f168201915b505050505090806003018054600181600116156101000203166002900480601f016020809104026020016040519081016040528092919081815260200182805460018160011615610100020316600290048015610c8e5780601f10610c6357610100808354040283529160200191610c8e565b820191906000526020600020905b815481529060010190602001808311610c7157829003601f168201915b505050505090806004015490806005018054600181600116156101000203166002900480601f016020809104026020016040519081016040528092919081815260200182805460018160011615610100020316600290048015610d325780601f10610d0757610100808354040283529160200191610d32565b820191906000526020600020905b815481529060010190602001808311610d1557829003601f168201915b505050505090806006018054600181600116156101000203166002900480601f016020809104026020016040519081016040528092919081815260200182805460018160011615610100020316600290048015610dd05780601f10610da557610100808354040283529160200191610dd0565b820191906000526020600020905b815481529060010190602001808311610db357829003601f168201915b505050505090806007018054600181600116156101000203166002900480601f016020809104026020016040519081016040528092919081815260200182805460018160011615610100020316600290048015610e6e5780601f10610e4357610100808354040283529160200191610e6e565b820191906000526020600020905b815481529060010190602001808311610e5157829003601f168201915b505050505090806008018054600181600116156101000203166002900480601f016020809104026020016040519081016040528092919081815260200182805460018160011615610100020316600290048015610f0c5780601f10610ee157610100808354040283529160200191610f0c565b820191906000526020600020905b815481529060010190602001808311610eef57829003601f168201915b5050505050908060090160009054906101000a900473ffffffffffffffffffffffffffffffffffffffff1690508a565b60076020528060005260406000206000915054906101000a900473ffffffffffffffffffffffffffffffffffffffff1681565b336000600190505b6002548111611039578173ffffffffffffffffffffffffffffffffffffffff166006600083815260200190815260200160002060009054906101000a900473ffffffffffffffffffffffffffffffffffffffff1673ffffffffffffffffffffffffffffffffffffffff16141561102c57600260011461102b576040517f08c379a0000000000000000000000000000000000000000000000000000000008152600401611022906121c5565b60405180910390fd5b5b8080600101915050610f77565b506000600190505b6003548111611103578173ffffffffffffffffffffffffffffffffffffffff166007600083815260200190815260200160002060009054906101000a900473ffffffffffffffffffffffffffffffffffffffff1673ffffffffffffffffffffffffffffffffffffffff1614156110f65760026001146110f5576040517f08c379a00000000000000000000000000000000000000000000000000000000081526004016110ec906121c5565b60405180910390fd5b5b8080600101915050611041565b506002600081548092919060010191905055503360066000600254815260200190815260200160002060006101000a81548173ffffffffffffffffffffffffffffffffffffffff021916908373ffffffffffffffffffffffffffffffffffffffff1602179055506040518060600160405280600254815260200184815260200183815250600860003373ffffffffffffffffffffffffffffffffffffffff1673ffffffffffffffffffffffffffffffffffffffff1681526020019081526020016000206000820151816000015560208201518160010190805190602001906111ec929190611b89565b506040820151816002019080519060200190611209929190611b89565b509050506003600081548092919060010191905055503360076000600354815260200190815260200160002060006101000a81548173ffffffffffffffffffffffffffffffffffffffff021916908373ffffffffffffffffffffffffffffffffffffffff1602179055506040518060600160405280600354815260200184815260200183815250600960003373ffffffffffffffffffffffffffffffffffffffff1673ffffffffffffffffffffffffffffffffffffffff1681526020019081526020016000206000820151816000015560208201518160010190805190602001906112f5929190611b89565b506040820151816002019080519060200190611312929190611b89565b50905050505050565b6008602052806000526040600020600091509050806000015490806001018054600181600116156101000203166002900480601f0160208091040260200160405190810160405280929190818152602001828054600181600116156101000203166002900480156113cd5780601f106113a2576101008083540402835291602001916113cd565b820191906000526020600020905b8154815290600101906020018083116113b057829003601f168201915b505050505090806002018054600181600116156101000203166002900480601f01602080910402602001604051908101604052809291908181526020018280546001816001161561010002031660029004801561146b5780601f106114405761010080835404028352916020019161146b565b820191906000526020600020905b81548152906001019060200180831161144e57829003601f168201915b5050505050905083565b60035481565b6000600460008481526020019081526020016000209050818160050190805190602001906114aa929190611c09565b50806004600085815260200190815260200160002060008201548160000155600182018160010190805460018160011615610100020316600290046114f0929190611c89565b5060028201816002019080546001816001161561010002031660029004611518929190611c89565b5060038201816003019080546001816001161561010002031660029004611540929190611c89565b506004820154816004015560058201816005019080546001816001161561010002031660029004611572929190611c89565b506006820181600601908054600181600116156101000203166002900461159a929190611c89565b50600782018160070190805460018160011615610100020316600290046115c2929190611c89565b50600882018160080190805460018160011615610100020316600290046115ea929190611c89565b506009820160009054906101000a900473ffffffffffffffffffffffffffffffffffffffff168160090160006101000a81548173ffffffffffffffffffffffffffffffffffffffff021916908373ffffffffffffffffffffffffffffffffffffffff160217905550905050505050565b60066020528060005260406000206000915054906101000a900473ffffffffffffffffffffffffffffffffffffffff1681565b60015481565b60006005600085815260200190815260200160002090506000600460008581526020019081526020016000209050828260050190805190602001906116d9929190611c09565b50828160050190805190602001906116f2929190611c09565b508160056000878152602001908152602001600020600082015481600001556001820160009054906101000a900473ffffffffffffffffffffffffffffffffffffffff168160010160006101000a81548173ffffffffffffffffffffffffffffffffffffffff021916908373ffffffffffffffffffffffffffffffffffffffff16021790555060028201548160020155600382018160030190805460018160011615610100020316600290046117a9929190611c89565b50600482018160040190805460018160011615610100020316600290046117d1929190611c89565b50600582018160050190805460018160011615610100020316600290046117f9929190611c89565b5060068201548160060155600782015481600701556008820160009054906101000a900473ffffffffffffffffffffffffffffffffffffffff168160080160006101000a81548173ffffffffffffffffffffffffffffffffffffffff021916908373ffffffffffffffffffffffffffffffffffffffff160217905550905050806004600086815260200190815260200160002060008201548160000155600182018160010190805460018160011615610100020316600290046118bd929190611c89565b50600282018160020190805460018160011615610100020316600290046118e5929190611c89565b506003820181600301908054600181600116156101000203166002900461190d929190611c89565b50600482015481600401556005820181600501908054600181600116156101000203166002900461193f929190611c89565b5060068201816006019080546001816001161561010002031660029004611967929190611c89565b506007820181600701908054600181600116156101000203166002900461198f929190611c89565b50600882018160080190805460018160011615610100020316600290046119b7929190611c89565b506009820160009054906101000a900473ffffffffffffffffffffffffffffffffffffffff168160090160006101000a81548173ffffffffffffffffffffffffffffffffffffffff021916908373ffffffffffffffffffffffffffffffffffffffff1602179055509050505050505050565b60025481565b6009602052806000526040600020600091509050806000015490806001018054600181600116156101000203166002900480601f016020809104026020016040519081016040528092919081815260200182805460018160011615610100020316600290048015611ae15780601f10611ab657610100808354040283529160200191611ae1565b820191906000526020600020905b815481529060010190602001808311611ac457829003601f168201915b505050505090806002018054600181600116156101000203166002900480601f016020809104026020016040519081016040528092919081815260200182805460018160011615610100020316600290048015611b7f5780601f10611b5457610100808354040283529160200191611b7f565b820191906000526020600020905b815481529060010190602001808311611b6257829003601f168201915b5050505050905083565b828054600181600116156101000203166002900490600052602060002090601f016020900481019282601f10611bca57805160ff1916838001178555611bf8565b82800160010185558215611bf8579182015b82811115611bf7578251825591602001919060010190611bdc565b5b509050611c059190611d10565b5090565b828054600181600116156101000203166002900490600052602060002090601f016020900481019282601f10611c4a57805160ff1916838001178555611c78565b82800160010185558215611c78579182015b82811115611c77578251825591602001919060010190611c5c565b5b509050611c859190611d10565b5090565b828054600181600116156101000203166002900490600052602060002090601f016020900481019282601f10611cc25780548555611cff565b82800160010185558215611cff57600052602060002091601f016020900482015b82811115611cfe578254825591600101919060010190611ce3565b5b509050611d0c9190611d10565b5090565b611d3291905b80821115611d2e576000816000905550600101611d16565b5090565b90565b600081359050611d44816124b8565b92915050565b600082601f830112611d5b57600080fd5b8135611d6e611d69826123e1565b6123b4565b91508082526020830160208301858383011115611d8a57600080fd5b611d95838284612465565b50505092915050565b600081359050611dad816124cf565b92915050565b600060208284031215611dc557600080fd5b6000611dd384828501611d35565b91505092915050565b60008060408385031215611def57600080fd5b600083013567ffffffffffffffff811115611e0957600080fd5b611e1585828601611d4a565b925050602083013567ffffffffffffffff811115611e3257600080fd5b611e3e85828601611d4a565b9150509250929050565b600080600080600080600080610100898b031215611e6557600080fd5b600089013567ffffffffffffffff811115611e7f57600080fd5b611e8b8b828c01611d4a565b985050602089013567ffffffffffffffff811115611ea857600080fd5b611eb48b828c01611d4a565b975050604089013567ffffffffffffffff811115611ed157600080fd5b611edd8b828c01611d4a565b9650506060611eee8b828c01611d9e565b955050608089013567ffffffffffffffff811115611f0b57600080fd5b611f178b828c01611d4a565b94505060a089013567ffffffffffffffff811115611f3457600080fd5b611f408b828c01611d4a565b93505060c089013567ffffffffffffffff811115611f5d57600080fd5b611f698b828c01611d4a565b92505060e089013567ffffffffffffffff811115611f8657600080fd5b611f928b828c01611d4a565b9150509295985092959890939650565b600060208284031215611fb457600080fd5b6000611fc284828501611d9e565b91505092915050565b60008060408385031215611fde57600080fd5b6000611fec85828601611d9e565b925050602083013567ffffffffffffffff81111561200957600080fd5b61201585828601611d4a565b9150509250929050565b60008060006060848603121561203457600080fd5b600061204286828701611d9e565b935050602084013567ffffffffffffffff81111561205f57600080fd5b61206b86828701611d4a565b925050604061207c86828701611d9e565b9150509250925092565b60008060006060848603121561209b57600080fd5b60006120a986828701611d9e565b93505060206120ba86828701611d9e565b925050604084013567ffffffffffffffff8111156120d757600080fd5b6120e386828701611d4a565b9150509250925092565b6120f681612429565b82525050565b60006121078261240d565b6121118185612418565b9350612121818560208601612474565b61212a816124a7565b840191505092915050565b6000612142602a83612418565b91507f4164647265737320616c7265616479206173736f63696174656420776974682060008301527f616e206163636f756e74000000000000000000000000000000000000000000006020830152604082019050919050565b6121a48161245b565b82525050565b60006020820190506121bf60008301846120ed565b92915050565b600060208201905081810360008301526121de81612135565b9050919050565b60006020820190506121fa600083018461219b565b92915050565b600061012082019050612216600083018c61219b565b612223602083018b6120ed565b612230604083018a61219b565b818103606083015261224281896120fc565b9050818103608083015261225681886120fc565b905081810360a083015261226a81876120fc565b905061227960c083018661219b565b61228660e083018561219b565b6122946101008301846120ed565b9a9950505050505050505050565b60006060820190506122b7600083018661219b565b81810360208301526122c981856120fc565b905081810360408301526122dd81846120fc565b9050949350505050565b6000610140820190506122fd600083018d61219b565b818103602083015261230f818c6120fc565b90508181036040830152612323818b6120fc565b90508181036060830152612337818a6120fc565b9050612346608083018961219b565b81810360a083015261235881886120fc565b905081810360c083015261236c81876120fc565b905081810360e083015261238081866120fc565b905081810361010083015261239581856120fc565b90506123a56101208301846120ed565b9b9a5050505050505050505050565b6000604051905081810181811067ffffffffffffffff821117156123d757600080fd5b8060405250919050565b600067ffffffffffffffff8211156123f857600080fd5b601f19601f8301169050602081019050919050565b600081519050919050565b600082825260208201905092915050565b60006124348261243b565b9050919050565b600073ffffffffffffffffffffffffffffffffffffffff82169050919050565b6000819050919050565b82818337600083830152505050565b60005b83811015612492578082015181840152602081019050612477565b838111156124a1576000848401525b50505050565b6000601f19601f8301169050919050565b6124c181612429565b81146124cc57600080fd5b50565b6124d88161245b565b81146124e357600080fd5b5056fea365627a7a723158202c38cd8355e98513236911025fdf63cc34023bf2f105b3857ca469e3140d4f4f6c6578706572696d656e74616cf564736f6c63430005100040",
  "source": "pragma solidity >=0.4.21 <0.6.0;\npragma experimental ABIEncoderV2;\n\ncontract TenderAuction {\n    uint public tenderCount = 0;\n    uint public bidCount = 0;\n    uint public uploaderCount = 0;\n    uint public bidderCount = 0;\n\n    struct Uploader {\n        uint id;\n        string username;\n        string usertype;\n    }\n\n    struct Bidder {\n        uint id;\n        string username;\n        string usertype;\n    }\n\n    struct Bid {\n        uint id;\n        address tenderBy;\n        uint tenderId;\n        string tenderTitle;\n        string tenderType;\n        string status;\n        uint tenderBudget;\n        uint bid;\n        address userHash;\n    }\n\n    struct Tender {\n        uint id;\n        string itemName;\n        string itemDescription;\n        string quantity;\n        uint budget;\n        string status;\n        string tenderType;\n        string transportMode;\n        string coalQuality;\n        address userHash;\n    }\n\n    mapping (uint => Tender) public tenders;\n    mapping (uint => Bid) public bids;\n    mapping (uint => address) public whoIsUploader;\n    mapping (uint => address) public whoIsBidder;\n    mapping (address => Uploader) public uploaders;\n    mapping (address => Bidder) public bidders;\n\n    // modifier isUploader(address _userHash) {\n    //     require(uploaders[_userHash]);\n    //     _;\n    // }\n\n    // modifier isBidder(address _userHash) {\n    //     require(bidders[_userHash]);\n    //     _;\n    // }\n\n    modifier alreadyPresent(address _address) {\n        for(uint i = 1; i <= uploaderCount; i++) {\n            if(whoIsUploader[i] == _address) {\n                require(1 == 2, \"Address already associated with an account\");\n            }\n        }\n\n        for(uint i = 1; i <= bidderCount; i++) {\n            if(whoIsBidder[i] == _address) {\n                require(1 == 2, \"Address already associated with an account\");\n            }\n        }\n        _;\n    }\n\n\n     function createActor(string memory _username, string memory _usertype) public alreadyPresent(msg.sender) { \n        uploaderCount++;\n        whoIsUploader[uploaderCount] = msg.sender;\n        uploaders[msg.sender] = Uploader(uploaderCount, _username, _usertype);\n        bidderCount++;\n        whoIsBidder[bidderCount] = msg.sender;\n        bidders[msg.sender] = Bidder(bidderCount, _username, _usertype);\n    }\n\n    function createTender(string memory _itemName, string memory _itemDescription, string memory _quantity, uint _budget, string memory _status, string memory _tenderType, string memory _transportMode, string memory _coalQuality) public {\n        tenderCount++;\n        tenders[tenderCount] = Tender(tenderCount, _itemName, _itemDescription, _quantity, _budget, _status, _tenderType, _transportMode,  _coalQuality, msg.sender);\n    }\n\n    function createBid(uint _tenderId, string memory bidStatus, uint _bid) public {\n        bidCount++;\n        address tenderBy = tenders[_tenderId].userHash;\n        bids[bidCount] = Bid(bidCount, tenderBy, _tenderId, tenders[_tenderId].itemName, tenders[_tenderId].tenderType, bidStatus, tenders[_tenderId].budget, _bid, msg.sender);\n    }\n\n     function updateTender(uint _tenderId, string memory _newstatus) public { \n        Tender storage currTender = tenders[_tenderId];\n        currTender.status = _newstatus;\n        tenders[_tenderId] = currTender;\n    }\n\n    function updateTenderBid(uint _id, uint _tenderId, string memory _newstatus) public {\n        Bid storage currBid = bids[_id];\n        Tender storage currTender = tenders[_tenderId];\n        currBid.status = _newstatus;\n        currTender.status = _newstatus;\n        bids[_id] = currBid;\n        tenders[_tenderId] = currTender;\n    }\n}",
  "sourcePath": "/Users/shwet/Desktop/ethereum-AuctionBidding-master/contracts/Tender.sol",
  "compiler": {
    "name": "solc",
    "version": "0.5.16+commit.9c3226ce.Emscripten.clang"
  },
  "schemaVersion": "3.4.16",
  "updatedAt": "2024-08-09T12:49:33.686Z",
  "networkType": "ethereum",
  "devdoc": {
    "methods": {}
  },
  "userdoc": {
    "methods": {}
  }
}