{
  "contractName": "TenderAuction",
  "abi": [
    {
      "constant": true,
      "inputs": [],
      "name": "bidCount",
      "outputs": [
        {
          "internalType": "uint256",
          "name": "",
          "type": "uint256"
        }
      ],
      "payable": false,
      "stateMutability": "view",
      "type": "function"
    },
    {
      "constant": true,
      "inputs": [],
      "name": "bidderCount",
      "outputs": [
        {
          "internalType": "uint256",
          "name": "",
          "type": "uint256"
        }
      ],
      "payable": false,
      "stateMutability": "view",
      "type": "function"
    },
    {
      "constant": true,
      "inputs": [
        {
          "internalType": "address",
          "name": "",
          "type": "address"
        }
      ],
      "name": "bidders",
      "outputs": [
        {
          "internalType": "uint256",
          "name": "id",
          "type": "uint256"
        },
        {
          "internalType": "string",
          "name": "username",
          "type": "string"
        },
        {
          "internalType": "string",
          "name": "usertype",
          "type": "string"
        }
      ],
      "payable": false,
      "stateMutability": "view",
      "type": "function"
    },
    {
      "constant": true,
      "inputs": [
        {
          "internalType": "uint256",
          "name": "",
          "type": "uint256"
        }
      ],
      "name": "bids",
      "outputs": [
        {
          "internalType": "uint256",
          "name": "id",
          "type": "uint256"
        },
        {
          "internalType": "address",
          "name": "tenderBy",
          "type": "address"
        },
        {
          "internalType": "uint256",
          "name": "tenderId",
          "type": "uint256"
        },
        {
          "internalType": "string",
          "name": "tenderTitle",
          "type": "string"
        },
        {
          "internalType": "uint256",
          "name": "bid",
          "type": "uint256"
        },
        {
          "internalType": "address",
          "name": "userHash",
          "type": "address"
        }
      ],
      "payable": false,
      "stateMutability": "view",
      "type": "function"
    },
    {
      "constant": true,
      "inputs": [],
      "name": "tenderCount",
      "outputs": [
        {
          "internalType": "uint256",
          "name": "",
          "type": "uint256"
        }
      ],
      "payable": false,
      "stateMutability": "view",
      "type": "function"
    },
    {
      "constant": true,
      "inputs": [
        {
          "internalType": "uint256",
          "name": "",
          "type": "uint256"
        }
      ],
      "name": "tenders",
      "outputs": [
        {
          "internalType": "uint256",
          "name": "id",
          "type": "uint256"
        },
        {
          "internalType": "string",
          "name": "itemName",
          "type": "string"
        },
        {
          "internalType": "string",
          "name": "itemDescription",
          "type": "string"
        },
        {
          "internalType": "uint256",
          "name": "quantity",
          "type": "uint256"
        },
        {
          "internalType": "address",
          "name": "userHash",
          "type": "address"
        }
      ],
      "payable": false,
      "stateMutability": "view",
      "type": "function"
    },
    {
      "constant": true,
      "inputs": [],
      "name": "uploaderCount",
      "outputs": [
        {
          "internalType": "uint256",
          "name": "",
          "type": "uint256"
        }
      ],
      "payable": false,
      "stateMutability": "view",
      "type": "function"
    },
    {
      "constant": true,
      "inputs": [
        {
          "internalType": "address",
          "name": "",
          "type": "address"
        }
      ],
      "name": "uploaders",
      "outputs": [
        {
          "internalType": "uint256",
          "name": "id",
          "type": "uint256"
        },
        {
          "internalType": "string",
          "name": "username",
          "type": "string"
        },
        {
          "internalType": "string",
          "name": "usertype",
          "type": "string"
        }
      ],
      "payable": false,
      "stateMutability": "view",
      "type": "function"
    },
    {
      "constant": true,
      "inputs": [
        {
          "internalType": "uint256",
          "name": "",
          "type": "uint256"
        }
      ],
      "name": "whoIsBidder",
      "outputs": [
        {
          "internalType": "address",
          "name": "",
          "type": "address"
        }
      ],
      "payable": false,
      "stateMutability": "view",
      "type": "function"
    },
    {
      "constant": true,
      "inputs": [
        {
          "internalType": "uint256",
          "name": "",
          "type": "uint256"
        }
      ],
      "name": "whoIsUploader",
      "outputs": [
        {
          "internalType": "address",
          "name": "",
          "type": "address"
        }
      ],
      "payable": false,
      "stateMutability": "view",
      "type": "function"
    },
    {
      "constant": false,
      "inputs": [
        {
          "internalType": "string",
          "name": "_username",
          "type": "string"
        },
        {
          "internalType": "string",
          "name": "_usertype",
          "type": "string"
        }
      ],
      "name": "createActor",
      "outputs": [],
      "payable": false,
      "stateMutability": "nonpayable",
      "type": "function"
    },
    {
      "constant": false,
      "inputs": [
        {
          "internalType": "string",
          "name": "_itemName",
          "type": "string"
        },
        {
          "internalType": "string",
          "name": "_itemDescription",
          "type": "string"
        },
        {
          "internalType": "uint256",
          "name": "_quantity",
          "type": "uint256"
        }
      ],
      "name": "createTender",
      "outputs": [],
      "payable": false,
      "stateMutability": "nonpayable",
      "type": "function"
    },
    {
      "constant": false,
      "inputs": [
        {
          "internalType": "uint256",
          "name": "_tenderId",
          "type": "uint256"
        },
        {
          "internalType": "uint256",
          "name": "_bid",
          "type": "uint256"
        }
      ],
      "name": "createBid",
      "outputs": [],
      "payable": false,
      "stateMutability": "nonpayable",
      "type": "function"
    }
  ],
  "bytecode": "0x60806040526000805560006001556000600255600060035534801561002357600080fd5b50611594806100336000396000f3fe608060405234801561001057600080fd5b50600436106100cf5760003560e01c806370d29c111161008c578063b40a562711610066578063b40a562714610243578063b7751c7114610261578063d45fada21461027d578063fcc8f7931461029b576100cf565b806370d29c11146101d9578063907dbc1d146101f75780639fa9586314610213576100cf565b80631f058776146100d45780634423c5f1146100f2578063465e1def1461012757806346b1cb5d1461015b57806353c78a941461018b57806363968e19146101a7575b600080fd5b6100dc6102cd565b6040516100e991906112f6565b60405180910390f35b61010c600480360361010791908101906111bf565b6102d3565b60405161011e96959493929190611311565b60405180910390f35b610141600480360361013c91908101906111bf565b6103e7565b6040516101529594939291906113be565b60405180910390f35b610175600480360361017091908101906111bf565b61056d565b60405161018291906112bb565b60405180910390f35b6101a560048036036101a091908101906110d4565b6105a0565b005b6101c160048036036101bc91908101906110ab565b61094c565b6040516101d093929190611379565b60405180910390f35b6101e1610aa6565b6040516101ee91906112f6565b60405180910390f35b610211600480360361020c9190810190611140565b610aac565b005b61022d600480360361022891908101906111bf565b610bad565b60405161023a91906112bb565b60405180910390f35b61024b610be0565b60405161025891906112f6565b60405180910390f35b61027b600480360361027691908101906111e8565b610be6565b005b610285610e28565b60405161029291906112f6565b60405180910390f35b6102b560048036036102b091908101906110ab565b610e2e565b6040516102c493929190611379565b60405180910390f35b60005481565b60056020528060005260406000206000915090508060000154908060010160009054906101000a900473ffffffffffffffffffffffffffffffffffffffff1690806002015490806003018054600181600116156101000203166002900480601f0160208091040260200160405190810160405280929190818152602001828054600181600116156101000203166002900480156103b15780601f10610386576101008083540402835291602001916103b1565b820191906000526020600020905b81548152906001019060200180831161039457829003601f168201915b5050505050908060040154908060050160009054906101000a900473ffffffffffffffffffffffffffffffffffffffff16905086565b6004602052806000526040600020600091509050806000015490806001018054600181600116156101000203166002900480601f0160208091040260200160405190810160405280929190818152602001828054600181600116156101000203166002900480156104995780601f1061046e57610100808354040283529160200191610499565b820191906000526020600020905b81548152906001019060200180831161047c57829003601f168201915b505050505090806002018054600181600116156101000203166002900480601f0160208091040260200160405190810160405280929190818152602001828054600181600116156101000203166002900480156105375780601f1061050c57610100808354040283529160200191610537565b820191906000526020600020905b81548152906001019060200180831161051a57829003601f168201915b5050505050908060030154908060040160009054906101000a900473ffffffffffffffffffffffffffffffffffffffff16905085565b60076020528060005260406000206000915054906101000a900473ffffffffffffffffffffffffffffffffffffffff1681565b336000600190505b600254811161066a578173ffffffffffffffffffffffffffffffffffffffff166006600083815260200190815260200160002060009054906101000a900473ffffffffffffffffffffffffffffffffffffffff1673ffffffffffffffffffffffffffffffffffffffff16141561065d57600260011461065c576040517f08c379a0000000000000000000000000000000000000000000000000000000008152600401610653906112d6565b60405180910390fd5b5b80806001019150506105a8565b506000600190505b6003548111610734578173ffffffffffffffffffffffffffffffffffffffff166007600083815260200190815260200160002060009054906101000a900473ffffffffffffffffffffffffffffffffffffffff1673ffffffffffffffffffffffffffffffffffffffff161415610727576002600114610726576040517f08c379a000000000000000000000000000000000000000000000000000000000815260040161071d906112d6565b60405180910390fd5b5b8080600101915050610672565b506002600081548092919060010191905055503360066000600254815260200190815260200160002060006101000a81548173ffffffffffffffffffffffffffffffffffffffff021916908373ffffffffffffffffffffffffffffffffffffffff1602179055506040518060600160405280600254815260200184815260200183815250600860003373ffffffffffffffffffffffffffffffffffffffff1673ffffffffffffffffffffffffffffffffffffffff16815260200190815260200160002060008201518160000155602082015181600101908051906020019061081d929190610f88565b50604082015181600201908051906020019061083a929190610f88565b509050506003600081548092919060010191905055503360076000600354815260200190815260200160002060006101000a81548173ffffffffffffffffffffffffffffffffffffffff021916908373ffffffffffffffffffffffffffffffffffffffff1602179055506040518060600160405280600354815260200184815260200183815250600960003373ffffffffffffffffffffffffffffffffffffffff1673ffffffffffffffffffffffffffffffffffffffff168152602001908152602001600020600082015181600001556020820151816001019080519060200190610926929190610f88565b506040820151816002019080519060200190610943929190610f88565b50905050505050565b6008602052806000526040600020600091509050806000015490806001018054600181600116156101000203166002900480601f0160208091040260200160405190810160405280929190818152602001828054600181600116156101000203166002900480156109fe5780601f106109d3576101008083540402835291602001916109fe565b820191906000526020600020905b8154815290600101906020018083116109e157829003601f168201915b505050505090806002018054600181600116156101000203166002900480601f016020809104026020016040519081016040528092919081815260200182805460018160011615610100020316600290048015610a9c5780601f10610a7157610100808354040283529160200191610a9c565b820191906000526020600020905b815481529060010190602001808311610a7f57829003601f168201915b5050505050905083565b60035481565b60008081548092919060010191905055506040518060a0016040528060005481526020018481526020018381526020018281526020013373ffffffffffffffffffffffffffffffffffffffff168152506004600080548152602001908152602001600020600082015181600001556020820151816001019080519060200190610b36929190610f88565b506040820151816002019080519060200190610b53929190610f88565b506060820151816003015560808201518160040160006101000a81548173ffffffffffffffffffffffffffffffffffffffff021916908373ffffffffffffffffffffffffffffffffffffffff160217905550905050505050565b60066020528060005260406000206000915054906101000a900473ffffffffffffffffffffffffffffffffffffffff1681565b60015481565b6001600081548092919060010191905055506060600460008481526020019081526020016000206001018054600181600116156101000203166002900480601f016020809104026020016040519081016040528092919081815260200182805460018160011615610100020316600290048015610ca45780601f10610c7957610100808354040283529160200191610ca4565b820191906000526020600020905b815481529060010190602001808311610c8757829003601f168201915b5050505050905060006004600085815260200190815260200160002060040160009054906101000a900473ffffffffffffffffffffffffffffffffffffffff1690506040518060c0016040528060015481526020018273ffffffffffffffffffffffffffffffffffffffff1681526020018581526020018381526020018481526020013373ffffffffffffffffffffffffffffffffffffffff168152506005600060015481526020019081526020016000206000820151816000015560208201518160010160006101000a81548173ffffffffffffffffffffffffffffffffffffffff021916908373ffffffffffffffffffffffffffffffffffffffff160217905550604082015181600201556060820151816003019080519060200190610dcd929190610f88565b506080820151816004015560a08201518160050160006101000a81548173ffffffffffffffffffffffffffffffffffffffff021916908373ffffffffffffffffffffffffffffffffffffffff16021790555090505050505050565b60025481565b6009602052806000526040600020600091509050806000015490806001018054600181600116156101000203166002900480601f016020809104026020016040519081016040528092919081815260200182805460018160011615610100020316600290048015610ee05780601f10610eb557610100808354040283529160200191610ee0565b820191906000526020600020905b815481529060010190602001808311610ec357829003601f168201915b505050505090806002018054600181600116156101000203166002900480601f016020809104026020016040519081016040528092919081815260200182805460018160011615610100020316600290048015610f7e5780601f10610f5357610100808354040283529160200191610f7e565b820191906000526020600020905b815481529060010190602001808311610f6157829003601f168201915b5050505050905083565b828054600181600116156101000203166002900490600052602060002090601f016020900481019282601f10610fc957805160ff1916838001178555610ff7565b82800160010185558215610ff7579182015b82811115610ff6578251825591602001919060010190610fdb565b5b5090506110049190611008565b5090565b61102a91905b8082111561102657600081600090555060010161100e565b5090565b90565b60008135905061103c81611523565b92915050565b600082601f83011261105357600080fd5b81356110666110618261144c565b61141f565b9150808252602083016020830185838301111561108257600080fd5b61108d8382846114d0565b50505092915050565b6000813590506110a58161153a565b92915050565b6000602082840312156110bd57600080fd5b60006110cb8482850161102d565b91505092915050565b600080604083850312156110e757600080fd5b600083013567ffffffffffffffff81111561110157600080fd5b61110d85828601611042565b925050602083013567ffffffffffffffff81111561112a57600080fd5b61113685828601611042565b9150509250929050565b60008060006060848603121561115557600080fd5b600084013567ffffffffffffffff81111561116f57600080fd5b61117b86828701611042565b935050602084013567ffffffffffffffff81111561119857600080fd5b6111a486828701611042565b92505060406111b586828701611096565b9150509250925092565b6000602082840312156111d157600080fd5b60006111df84828501611096565b91505092915050565b600080604083850312156111fb57600080fd5b600061120985828601611096565b925050602061121a85828601611096565b9150509250929050565b61122d81611494565b82525050565b600061123e82611478565b6112488185611483565b93506112588185602086016114df565b61126181611512565b840191505092915050565b6000611279601783611483565b91507f4164647265737320616c72656164792070726573656e740000000000000000006000830152602082019050919050565b6112b5816114c6565b82525050565b60006020820190506112d06000830184611224565b92915050565b600060208201905081810360008301526112ef8161126c565b9050919050565b600060208201905061130b60008301846112ac565b92915050565b600060c08201905061132660008301896112ac565b6113336020830188611224565b61134060408301876112ac565b81810360608301526113528186611233565b905061136160808301856112ac565b61136e60a0830184611224565b979650505050505050565b600060608201905061138e60008301866112ac565b81810360208301526113a08185611233565b905081810360408301526113b48184611233565b9050949350505050565b600060a0820190506113d360008301886112ac565b81810360208301526113e58187611233565b905081810360408301526113f98186611233565b905061140860608301856112ac565b6114156080830184611224565b9695505050505050565b6000604051905081810181811067ffffffffffffffff8211171561144257600080fd5b8060405250919050565b600067ffffffffffffffff82111561146357600080fd5b601f19601f8301169050602081019050919050565b600081519050919050565b600082825260208201905092915050565b600061149f826114a6565b9050919050565b600073ffffffffffffffffffffffffffffffffffffffff82169050919050565b6000819050919050565b82818337600083830152505050565b60005b838110156114fd5780820151818401526020810190506114e2565b8381111561150c576000848401525b50505050565b6000601f19601f8301169050919050565b61152c81611494565b811461153757600080fd5b50565b611543816114c6565b811461154e57600080fd5b5056fea365627a7a72315820e3f7a1c15f472421dc4930aa448b93117df851c91c83967343586dbef2bdaba56c6578706572696d656e74616cf564736f6c63430005100040",
  "source": "pragma solidity >=0.4.21 <0.6.0;\npragma experimental ABIEncoderV2;\n\ncontract TenderAuction {\n    uint public tenderCount = 0;\n    uint public bidCount = 0;\n    uint public uploaderCount = 0;\n    uint public bidderCount = 0;\n\n    struct Uploader {\n        uint id;\n        string username;\n        string usertype;\n    }\n\n    struct Bidder {\n        uint id;\n        string username;\n        string usertype;\n    }\n\n    struct Bid {\n        uint id;\n        address tenderBy;\n        uint tenderId;\n        string tenderTitle;\n        uint bid;\n        address userHash;\n    }\n\n    struct Tender {\n        uint id;\n        string itemName;\n        string itemDescription;\n        uint quantity;\n        address userHash;\n    }\n\n    mapping (uint => Tender) public tenders;\n    mapping (uint => Bid) public bids;\n    mapping (uint => address) public whoIsUploader;\n    mapping (uint => address) public whoIsBidder;\n    mapping (address => Uploader) public uploaders;\n    mapping (address => Bidder) public bidders;\n\n    // modifier isUploader(address _userHash) {\n    //     require(uploaders[_userHash]);\n    //     _;\n    // }\n\n    // modifier isBidder(address _userHash) {\n    //     require(bidders[_userHash]);\n    //     _;\n    // }\n\n    modifier alreadyPresent(address _address) {\n        for(uint i = 1; i <= uploaderCount; i++) {\n            if(whoIsUploader[i] == _address) {\n                require(1 == 2, \"Address already present\");\n            }\n        }\n\n        for(uint i = 1; i <= bidderCount; i++) {\n            if(whoIsBidder[i] == _address) {\n                require(1 == 2, \"Address already present\");\n            }\n        }\n        _;\n    }\n\n    // function createUploader(string memory _username) public alreadyPresent(msg.sender) {\n    //     uploaderCount++;\n    //     whoIsUploader[uploaderCount] = msg.sender;\n    //     uploaders[msg.sender] = Uploader(uploaderCount, _username);\n    // }\n\n    // function createBidder(string memory _username) public alreadyPresent(msg.sender) {\n    //     bidderCount++;\n    //     whoIsBidder[bidderCount] = msg.sender;\n    //     bidders[msg.sender] = Bidder(bidderCount, _username);\n    // }\n\n     function createActor(string memory _username, string memory _usertype) public alreadyPresent(msg.sender) { \n        uploaderCount++;\n        whoIsUploader[uploaderCount] = msg.sender;\n        uploaders[msg.sender] = Uploader(uploaderCount, _username, _usertype);\n        bidderCount++;\n        whoIsBidder[bidderCount] = msg.sender;\n        bidders[msg.sender] = Bidder(bidderCount, _username, _usertype);\n    }\n\n    function createTender(string memory _itemName, string memory _itemDescription, uint _quantity) public {\n        tenderCount++;\n        tenders[tenderCount] = Tender(tenderCount, _itemName, _itemDescription, _quantity, msg.sender);\n    }\n\n    function createBid(uint _tenderId, uint _bid) public {\n        bidCount++;\n        string memory tenderName = tenders[_tenderId].itemName;\n        address tenderBy = tenders[_tenderId].userHash;\n        bids[bidCount] = Bid(bidCount, tenderBy, _tenderId, tenderName, _bid, msg.sender);\n    }\n}",
  "sourcePath": "/Users/shwet/Desktop/ethereum-AuctionBidding-master/contracts/Tender.sol",
  "compiler": {
    "name": "solc",
    "version": "0.5.16+commit.9c3226ce.Emscripten.clang"
  },
  "schemaVersion": "3.4.16",
  "updatedAt": "2024-07-28T12:34:53.998Z",
  "networkType": "ethereum",
  "devdoc": {
    "methods": {}
  },
  "userdoc": {
    "methods": {}
  }
}